{
  "contractName": "Election",
  "abi": [
    {
      "inputs": [],
      "stateMutability": "nonpayable",
      "type": "constructor"
    },
    {
      "anonymous": false,
      "inputs": [
        {
          "indexed": true,
          "internalType": "uint256",
          "name": "_candidateId",
          "type": "uint256"
        }
      ],
      "name": "votedEvent",
      "type": "event"
    },
    {
      "inputs": [],
      "name": "candidate",
      "outputs": [
        {
          "internalType": "string",
          "name": "",
          "type": "string"
        }
      ],
      "stateMutability": "view",
      "type": "function",
      "constant": true
    },
    {
      "inputs": [
        {
          "internalType": "uint256",
          "name": "",
          "type": "uint256"
        }
      ],
      "name": "candidates",
      "outputs": [
        {
          "internalType": "uint256",
          "name": "id",
          "type": "uint256"
        },
        {
          "internalType": "string",
          "name": "name",
          "type": "string"
        },
        {
          "internalType": "uint256",
          "name": "voteCount",
          "type": "uint256"
        },
        {
          "internalType": "string",
          "name": "details",
          "type": "string"
        },
        {
          "internalType": "string",
          "name": "election_id",
          "type": "string"
        }
      ],
      "stateMutability": "view",
      "type": "function",
      "constant": true
    },
    {
      "inputs": [],
      "name": "candidatesCount",
      "outputs": [
        {
          "internalType": "uint256",
          "name": "",
          "type": "uint256"
        }
      ],
      "stateMutability": "view",
      "type": "function",
      "constant": true
    },
    {
      "inputs": [
        {
          "internalType": "address",
          "name": "",
          "type": "address"
        }
      ],
      "name": "voters",
      "outputs": [
        {
          "internalType": "bool",
          "name": "",
          "type": "bool"
        }
      ],
      "stateMutability": "view",
      "type": "function",
      "constant": true
    },
    {
      "inputs": [
        {
          "internalType": "string",
          "name": "_name",
          "type": "string"
        },
        {
          "internalType": "string",
          "name": "_details",
          "type": "string"
        },
        {
          "internalType": "string",
          "name": "_election_id",
          "type": "string"
        }
      ],
      "name": "addCandidate",
      "outputs": [],
      "stateMutability": "nonpayable",
      "type": "function"
    },
    {
      "inputs": [
        {
          "internalType": "uint256",
          "name": "_candidateId",
          "type": "uint256"
        }
      ],
      "name": "vote",
      "outputs": [],
      "stateMutability": "nonpayable",
      "type": "function"
    }
  ],
  "bytecode": "0x608060405234801561001057600080fd5b50610d7c806100206000396000f3fe608060405234801561001057600080fd5b50600436106100625760003560e01c80630121b93f146100675780632d35a8a2146100835780633477ee2e146100a15780636c8381f8146100d5578063a3ec138d146100f3578063ad71f8dc14610123575b600080fd5b610081600480360381019061007c91906105e3565b61013f565b005b61008b610263565b604051610098919061061f565b60405180910390f35b6100bb60048036038101906100b691906105e3565b610269565b6040516100cc9594939291906106ca565b60405180910390f35b6100dd610437565b6040516100ea9190610732565b60405180910390f35b61010d600480360381019061010891906107b2565b6104c5565b60405161011a91906107fa565b60405180910390f35b61013d6004803603810190610138919061094a565b6104e5565b005b600160003373ffffffffffffffffffffffffffffffffffffffff1673ffffffffffffffffffffffffffffffffffffffff16815260200190815260200160002060009054906101000a900460ff161561019657600080fd5b6000811180156101a857506002548111155b6101b157600080fd5b60018060003373ffffffffffffffffffffffffffffffffffffffff1673ffffffffffffffffffffffffffffffffffffffff16815260200190815260200160002060006101000a81548160ff021916908315150217905550600080828152602001908152602001600020600201600081548092919061022e90610a20565b9190505550807ffff3c900d938d21d0990d786e819f29b8d05c1ef587b462b939609625b684b1660405160405180910390a250565b60025481565b600060205280600052604060002060009150905080600001549080600101805461029290610a97565b80601f01602080910402602001604051908101604052809291908181526020018280546102be90610a97565b801561030b5780601f106102e05761010080835404028352916020019161030b565b820191906000526020600020905b8154815290600101906020018083116102ee57829003601f168201915b50505050509080600201549080600301805461032690610a97565b80601f016020809104026020016040519081016040528092919081815260200182805461035290610a97565b801561039f5780601f106103745761010080835404028352916020019161039f565b820191906000526020600020905b81548152906001019060200180831161038257829003601f168201915b5050505050908060040180546103b490610a97565b80601f01602080910402602001604051908101604052809291908181526020018280546103e090610a97565b801561042d5780601f106104025761010080835404028352916020019161042d565b820191906000526020600020905b81548152906001019060200180831161041057829003601f168201915b5050505050905085565b6003805461044490610a97565b80601f016020809104026020016040519081016040528092919081815260200182805461047090610a97565b80156104bd5780601f10610492576101008083540402835291602001916104bd565b820191906000526020600020905b8154815290600101906020018083116104a057829003601f168201915b505050505081565b60016020528060005260406000206000915054906101000a900460ff1681565b600260008154809291906104f890610a20565b91905055506040518060a0016040528060025481526020018481526020016000815260200183815260200182815250600080600254815260200190815260200160002060008201518160000155602082015181600101908161055a9190610c74565b5060408201518160020155606082015181600301908161057a9190610c74565b5060808201518160040190816105909190610c74565b50905050505050565b6000604051905090565b600080fd5b600080fd5b6000819050919050565b6105c0816105ad565b81146105cb57600080fd5b50565b6000813590506105dd816105b7565b92915050565b6000602082840312156105f9576105f86105a3565b5b6000610607848285016105ce565b91505092915050565b610619816105ad565b82525050565b60006020820190506106346000830184610610565b92915050565b600081519050919050565b600082825260208201905092915050565b60005b83811015610674578082015181840152602081019050610659565b60008484015250505050565b6000601f19601f8301169050919050565b600061069c8261063a565b6106a68185610645565b93506106b6818560208601610656565b6106bf81610680565b840191505092915050565b600060a0820190506106df6000830188610610565b81810360208301526106f18187610691565b90506107006040830186610610565b81810360608301526107128185610691565b905081810360808301526107268184610691565b90509695505050505050565b6000602082019050818103600083015261074c8184610691565b905092915050565b600073ffffffffffffffffffffffffffffffffffffffff82169050919050565b600061077f82610754565b9050919050565b61078f81610774565b811461079a57600080fd5b50565b6000813590506107ac81610786565b92915050565b6000602082840312156107c8576107c76105a3565b5b60006107d68482850161079d565b91505092915050565b60008115159050919050565b6107f4816107df565b82525050565b600060208201905061080f60008301846107eb565b92915050565b600080fd5b600080fd5b7f4e487b7100000000000000000000000000000000000000000000000000000000600052604160045260246000fd5b61085782610680565b810181811067ffffffffffffffff821117156108765761087561081f565b5b80604052505050565b6000610889610599565b9050610895828261084e565b919050565b600067ffffffffffffffff8211156108b5576108b461081f565b5b6108be82610680565b9050602081019050919050565b82818337600083830152505050565b60006108ed6108e88461089a565b61087f565b9050828152602081018484840111156109095761090861081a565b5b6109148482856108cb565b509392505050565b600082601f83011261093157610930610815565b5b81356109418482602086016108da565b91505092915050565b600080600060608486031215610963576109626105a3565b5b600084013567ffffffffffffffff811115610981576109806105a8565b5b61098d8682870161091c565b935050602084013567ffffffffffffffff8111156109ae576109ad6105a8565b5b6109ba8682870161091c565b925050604084013567ffffffffffffffff8111156109db576109da6105a8565b5b6109e78682870161091c565b9150509250925092565b7f4e487b7100000000000000000000000000000000000000000000000000000000600052601160045260246000fd5b6000610a2b826105ad565b91507fffffffffffffffffffffffffffffffffffffffffffffffffffffffffffffffff8203610a5d57610a5c6109f1565b5b600182019050919050565b7f4e487b7100000000000000000000000000000000000000000000000000000000600052602260045260246000fd5b60006002820490506001821680610aaf57607f821691505b602082108103610ac257610ac1610a68565b5b50919050565b60008190508160005260206000209050919050565b60006020601f8301049050919050565b600082821b905092915050565b600060088302610b2a7fffffffffffffffffffffffffffffffffffffffffffffffffffffffffffffffff82610aed565b610b348683610aed565b95508019841693508086168417925050509392505050565b6000819050919050565b6000610b71610b6c610b67846105ad565b610b4c565b6105ad565b9050919050565b6000819050919050565b610b8b83610b56565b610b9f610b9782610b78565b848454610afa565b825550505050565b600090565b610bb4610ba7565b610bbf818484610b82565b505050565b5b81811015610be357610bd8600082610bac565b600181019050610bc5565b5050565b601f821115610c2857610bf981610ac8565b610c0284610add565b81016020851015610c11578190505b610c25610c1d85610add565b830182610bc4565b50505b505050565b600082821c905092915050565b6000610c4b60001984600802610c2d565b1980831691505092915050565b6000610c648383610c3a565b9150826002028217905092915050565b610c7d8261063a565b67ffffffffffffffff811115610c9657610c9561081f565b5b610ca08254610a97565b610cab828285610be7565b600060209050601f831160018114610cde5760008415610ccc578287015190505b610cd68582610c58565b865550610d3e565b601f198416610cec86610ac8565b60005b82811015610d1457848901518255600182019150602085019450602081019050610cef565b86831015610d315784890151610d2d601f891682610c3a565b8355505b6001600288020188555050505b50505050505056fea264697066735822122055c165afda68f3f0cff73426ded5e41087f926f32c318ca5e15fa004c7004fe564736f6c63430008130033",
  "immutableReferences": {},
  "source": "pragma solidity >=0.7.0;\n\ncontract Election {\n\n    struct Candidate {\n        uint id;\n        string name;\n        uint voteCount;\n        string details;\n        string election_id;\n    }\n\n    mapping(uint => Candidate) public candidates;\n    mapping(address => bool) public voters;\n\n    uint public candidatesCount;\n\n    string public candidate;\n\n    constructor() public {}\n\n    event votedEvent(\n        uint indexed _candidateId\n    );\n\n    function addCandidate(string memory _name, string memory _details, string memory _election_id) public {\n        candidatesCount++;\n        candidates[candidatesCount] = Candidate(candidatesCount, _name, 0, _details, _election_id);\n    }\n\n    function vote(uint _candidateId) public {\n        require(!voters[msg.sender]);\n\n        require(_candidateId > 0 && _candidateId <= candidatesCount);\n        \n        voters[msg.sender] = true;\n        \n        candidates[_candidateId].voteCount++;\n    \n        emit votedEvent(_candidateId);\n    }\n\n}",
  "sourcePath": "/Users/maddie/Projects/CPSC_559/559_final_project/blockchain/src/contracts/Election.sol",
  "compiler": {
    "name": "solc",
    "version": "0.8.19+commit.7dd6d404.Emscripten.clang"
  },
  "schemaVersion": "3.4.13",
  "updatedAt": "2023-05-08T00:19:31.746Z",
  "networkType": "ethereum",
  "devdoc": {
    "kind": "dev",
    "methods": {},
    "version": 1
  },
  "userdoc": {
    "kind": "user",
    "methods": {},
    "version": 1
  }
}